{
  "abi": [
    {
      "inputs": [],
      "stateMutability": "nonpayable",
      "type": "constructor"
    },
    {
      "anonymous": false,
      "inputs": [
        {
          "indexed": true,
          "internalType": "address",
          "name": "from",
          "type": "address"
        },
        {
          "indexed": false,
          "internalType": "uint256",
          "name": "timestamp",
          "type": "uint256"
        }
      ],
      "name": "NewWave",
      "type": "event"
    },
    {
      "inputs": [],
      "name": "getAllWaves",
      "outputs": [
        {
          "components": [
            {
              "internalType": "address",
              "name": "waver",
              "type": "address"
            },
            {
              "internalType": "uint256",
              "name": "timestamp",
              "type": "uint256"
            }
          ],
          "internalType": "struct WavePortal.Wave[]",
          "name": "",
          "type": "tuple[]"
        }
      ],
      "stateMutability": "view",
      "type": "function"
    },
    {
      "inputs": [],
      "name": "getTotalWaves",
      "outputs": [
        {
          "internalType": "uint256",
          "name": "",
          "type": "uint256"
        }
      ],
      "stateMutability": "view",
      "type": "function"
    },
    {
      "inputs": [],
      "name": "wave",
      "outputs": [],
      "stateMutability": "nonpayable",
      "type": "function"
    }
  ],
  "bytecode": {
    "object": "0x608060405234801561001057600080fd5b506100596040518060400160405280601881526020017f4920414d20534d41525420434f4e54524143542e20474d2e000000000000000081525061005e60201b6102481760201c565b610117565b6100a58160405160240161007291906100c9565b60408051601f198184030181529190526020810180516001600160e01b0390811663104c13eb60e21b179091526100a816565b50565b80516a636f6e736f6c652e6c6f67602083016000808483855afa5050505050565b600060208083528351808285015260005b818110156100f6578581018301518582016040015282016100da565b506000604082860101526040601f19601f8301168501019250505092915050565b61049a806101266000396000f3fe608060405234801561001057600080fd5b50600436106100415760003560e01c80636fe15b44146100465780639a2cdc0814610050578063bd43a9081461006b575b600080fd5b61004e610080565b005b610058610189565b6040519081526020015b60405180910390f35b6100736101d3565b6040516100629190610339565b60016000808282546100929190610391565b9091555050604080518082019091526008815267095cc81dd85d995960c21b60208201526100c0903361028e565b6040805180820182523380825242602080840182815260018054808201825560009190915294517fb10e2d527612073b26eecdfd717e6a320cf44b4afac2b0732d9fcbe2b7fa0cf6600290960295860180546001600160a01b0319166001600160a01b03909216919091179055517fb10e2d527612073b26eecdfd717e6a320cf44b4afac2b0732d9fcbe2b7fa0cf7909401939093559251928352917fd4039eae27a8bdb2161befb9f8627b7c1427c2515e32d699b7dc252416e719cd910160405180910390a2565b60006101cc6040518060400160405280601781526020017f5765206861766520256420746f74616c207761766573210000000000000000008152506000546102d7565b5060005490565b60606001805480602002602001604051908101604052809291908181526020016000905b8282101561023f576000848152602090819020604080518082019091526002850290910180546001600160a01b031682526001908101548284015290835290920191016101f7565b50505050905090565b61028b8160405160240161025c91906103fe565b60408051601f198184030181529190526020810180516001600160e01b031663104c13eb60e21b179052610318565b50565b6102d382826040516024016102a4929190610418565b60408051601f198184030181529190526020810180516001600160e01b031663319af33360e01b179052610318565b5050565b6102d382826040516024016102ed929190610442565b60408051601f198184030181529190526020810180516001600160e01b03166309710a9d60e41b1790525b80516a636f6e736f6c652e6c6f67602083016000808483855afa5050505050565b602080825282518282018190526000919060409081850190868401855b8281101561038457815180516001600160a01b03168552860151868501529284019290850190600101610356565b5091979650505050505050565b808201808211156103b257634e487b7160e01b600052601160045260246000fd5b92915050565b6000815180845260005b818110156103de576020818501810151868301820152016103c2565b506000602082860101526020601f19601f83011685010191505092915050565b60208152600061041160208301846103b8565b9392505050565b60408152600061042b60408301856103b8565b905060018060a01b03831660208301529392505050565b60408152600061045560408301856103b8565b9050826020830152939250505056fea2646970667358221220200b91a82bf6d6469a72dad50564d2fbd7eaf777409813b1bcdd52137e1c351f64736f6c63430008110033",
    "linkReferences": {}
  },
  "methodIdentifiers": {
    "getAllWaves()": "bd43a908",
    "getTotalWaves()": "9a2cdc08",
    "wave()": "6fe15b44"
  },
  "id": 16
}