{
  "abi": [
    {
      "inputs": [],
      "stateMutability": "nonpayable",
      "type": "constructor"
    },
    {
      "anonymous": false,
      "inputs": [
        {
          "indexed": true,
          "internalType": "address",
          "name": "from",
          "type": "address"
        },
        {
          "indexed": false,
          "internalType": "uint256",
          "name": "timestamp",
          "type": "uint256"
        },
        {
          "indexed": false,
          "internalType": "string",
          "name": "message",
          "type": "string"
        }
      ],
      "name": "NewWave",
      "type": "event"
    },
    {
      "inputs": [],
      "name": "getAllWaves",
      "outputs": [
        {
          "components": [
            {
              "internalType": "address",
              "name": "waver",
              "type": "address"
            },
            {
              "internalType": "string",
              "name": "message",
              "type": "string"
            },
            {
              "internalType": "uint256",
              "name": "timestamp",
              "type": "uint256"
            }
          ],
          "internalType": "struct WavePortal.Wave[]",
          "name": "",
          "type": "tuple[]"
        }
      ],
      "stateMutability": "view",
      "type": "function"
    },
    {
      "inputs": [],
      "name": "getTotalWaves",
      "outputs": [
        {
          "internalType": "uint256",
          "name": "",
          "type": "uint256"
        }
      ],
      "stateMutability": "view",
      "type": "function"
    },
    {
      "inputs": [
        {
          "internalType": "address",
          "name": "",
          "type": "address"
        }
      ],
      "name": "usersWhoWaved",
      "outputs": [
        {
          "internalType": "bool",
          "name": "",
          "type": "bool"
        }
      ],
      "stateMutability": "view",
      "type": "function"
    },
    {
      "inputs": [
        {
          "internalType": "string",
          "name": "_message",
          "type": "string"
        }
      ],
      "name": "wave",
      "outputs": [],
      "stateMutability": "nonpayable",
      "type": "function"
    }
  ],
  "bytecode": {
    "object": "0x608060405234801561001057600080fd5b506100596040518060400160405280601881526020017f4920414d20534d41525420434f4e54524143542e20474d2e000000000000000081525061005e60201b6103e21760201c565b610117565b6100a58160405160240161007291906100c9565b60408051601f198184030181529190526020810180516001600160e01b0390811663104c13eb60e21b179091526100a816565b50565b80516a636f6e736f6c652e6c6f67602083016000808483855afa5050505050565b600060208083528351808285015260005b818110156100f6578581018301518582016040015282016100da565b506000604082860101526040601f19601f8301168501019250505092915050565b6108e0806101266000396000f3fe608060405234801561001057600080fd5b506004361061004c5760003560e01c8063449d46c0146100515780639a2cdc0814610066578063bd43a90814610081578063c9796e8d14610096575b600080fd5b61006461005f3660046104f4565b6100c9565b005b61006e610287565b6040519081526020015b60405180910390f35b6100896102d1565b60405161007891906105eb565b6100b96100a4366004610677565b60026020526000908152604090205460ff1681565b6040519015158152602001610078565b3360009081526002602052604090205460ff161561012d5760405162461bcd60e51b815260206004820152601f60248201527f5468697320616464726573732068617320616c72656164792077617665642e00604482015260640160405180910390fd5b600160008082825461013f91906106a7565b9091555050604080518082019091526016815275257320776176656420772f206d65737361676520257360501b602082015261017c903383610428565b6040805160608101825233815260208101838152429282019290925260018054808201825560009190915281517fb10e2d527612073b26eecdfd717e6a320cf44b4afac2b0732d9fcbe2b7fa0cf6600390920291820180546001600160a01b0319166001600160a01b0390921691909117815592519192917fb10e2d527612073b26eecdfd717e6a320cf44b4afac2b0732d9fcbe2b7fa0cf7909101906102239082610756565b506040918201516002909101555133907f5f7e16dc676677766a70e9c5628aa6c54ddb8b6e5188e2ae1e1f17f1ffbea716906102629042908590610816565b60405180910390a250336000908152600260205260409020805460ff19166001179055565b60006102ca6040518060400160405280601781526020017f5765206861766520256420746f74616c20776176657321000000000000000000815250600054610474565b5060005490565b60606001805480602002602001604051908101604052809291908181526020016000905b828210156103d957600084815260209081902060408051606081019091526003850290910180546001600160a01b03168252600181018054929391929184019161033e906106ce565b80601f016020809104026020016040519081016040528092919081815260200182805461036a906106ce565b80156103b75780601f1061038c576101008083540402835291602001916103b7565b820191906000526020600020905b81548152906001019060200180831161039a57829003601f168201915b50505050508152602001600282015481525050815260200190600101906102f5565b50505050905090565b610425816040516024016103f69190610837565b60408051601f198184030181529190526020810180516001600160e01b031663104c13eb60e21b1790526104bd565b50565b61046f8383836040516024016104409392919061084a565b60408051601f198184030181529190526020810180516001600160e01b031663e0e9ad4f60e01b1790526104bd565b505050565b6104b9828260405160240161048a929190610888565b60408051601f198184030181529190526020810180516001600160e01b03166309710a9d60e41b1790526104bd565b5050565b80516a636f6e736f6c652e6c6f67602083016000808483855afa5050505050565b634e487b7160e01b600052604160045260246000fd5b60006020828403121561050657600080fd5b813567ffffffffffffffff8082111561051e57600080fd5b818401915084601f83011261053257600080fd5b813581811115610544576105446104de565b604051601f8201601f19908116603f0116810190838211818310171561056c5761056c6104de565b8160405282815287602084870101111561058557600080fd5b826020860160208301376000928101602001929092525095945050505050565b6000815180845260005b818110156105cb576020818501810151868301820152016105af565b506000602082860101526020601f19601f83011685010191505092915050565b60006020808301818452808551808352604092508286019150828160051b87010184880160005b8381101561066957888303603f19018552815180516001600160a01b031684528781015160608986018190529061064b828701826105a5565b92890151958901959095525094870194925090860190600101610612565b509098975050505050505050565b60006020828403121561068957600080fd5b81356001600160a01b03811681146106a057600080fd5b9392505050565b808201808211156106c857634e487b7160e01b600052601160045260246000fd5b92915050565b600181811c908216806106e257607f821691505b60208210810361070257634e487b7160e01b600052602260045260246000fd5b50919050565b601f82111561046f57600081815260208120601f850160051c8101602086101561072f5750805b601f850160051c820191505b8181101561074e5782815560010161073b565b505050505050565b815167ffffffffffffffff811115610770576107706104de565b6107848161077e84546106ce565b84610708565b602080601f8311600181146107b957600084156107a15750858301515b600019600386901b1c1916600185901b17855561074e565b600085815260208120601f198616915b828110156107e8578886015182559484019460019091019084016107c9565b50858210156108065787850151600019600388901b60f8161c191681555b5050505050600190811b01905550565b82815260406020820152600061082f60408301846105a5565b949350505050565b6020815260006106a060208301846105a5565b60608152600061085d60608301866105a5565b6001600160a01b0385166020840152828103604084015261087e81856105a5565b9695505050505050565b60408152600061089b60408301856105a5565b9050826020830152939250505056fea264697066735822122096a377c37f96d7d28be32c3cce195de2b7e2972d46338e990d870f23461f55e864736f6c63430008110033",
    "linkReferences": {}
  },
  "methodIdentifiers": {
    "getAllWaves()": "bd43a908",
    "getTotalWaves()": "9a2cdc08",
    "usersWhoWaved(address)": "c9796e8d",
    "wave(string)": "449d46c0"
  },
  "id": 16
}