{
  "abi": [
    {
      "inputs": [],
      "stateMutability": "nonpayable",
      "type": "constructor"
    },
    {
      "anonymous": false,
      "inputs": [
        {
          "indexed": true,
          "internalType": "address",
          "name": "from",
          "type": "address"
        },
        {
          "indexed": false,
          "internalType": "uint256",
          "name": "timestamp",
          "type": "uint256"
        },
        {
          "indexed": false,
          "internalType": "string",
          "name": "message",
          "type": "string"
        }
      ],
      "name": "NewWave",
      "type": "event"
    },
    {
      "inputs": [],
      "name": "getAllWaves",
      "outputs": [
        {
          "components": [
            {
              "internalType": "address",
              "name": "waver",
              "type": "address"
            },
            {
              "internalType": "string",
              "name": "message",
              "type": "string"
            },
            {
              "internalType": "uint256",
              "name": "timestamp",
              "type": "uint256"
            }
          ],
          "internalType": "struct WavePortal.Wave[]",
          "name": "",
          "type": "tuple[]"
        }
      ],
      "stateMutability": "view",
      "type": "function"
    },
    {
      "inputs": [],
      "name": "getTotalWaves",
      "outputs": [
        {
          "internalType": "uint256",
          "name": "",
          "type": "uint256"
        }
      ],
      "stateMutability": "view",
      "type": "function"
    },
    {
      "inputs": [
        {
          "internalType": "address",
          "name": "",
          "type": "address"
        }
      ],
      "name": "usersWhoWaved",
      "outputs": [
        {
          "internalType": "bool",
          "name": "",
          "type": "bool"
        }
      ],
      "stateMutability": "view",
      "type": "function"
    },
    {
      "inputs": [
        {
          "internalType": "string",
          "name": "_message",
          "type": "string"
        }
      ],
      "name": "wave",
      "outputs": [],
      "stateMutability": "nonpayable",
      "type": "function"
    }
  ],
  "bytecode": {
    "object": "0x608060405234801561001057600080fd5b506100596040518060400160405280601881526020017f4920414d20534d41525420434f4e54524143542e20474d2e000000000000000081525061005e60201b61037e1760201c565b610117565b6100a58160405160240161007291906100c9565b60408051601f198184030181529190526020810180516001600160e01b0390811663104c13eb60e21b179091526100a816565b50565b80516a636f6e736f6c652e6c6f67602083016000808483855afa5050505050565b600060208083528351808285015260005b818110156100f6578581018301518582016040015282016100da565b506000604082860101526040601f19601f8301168501019250505092915050565b61087c806101266000396000f3fe608060405234801561001057600080fd5b506004361061004c5760003560e01c8063449d46c0146100515780639a2cdc0814610066578063bd43a90814610081578063c9796e8d14610096575b600080fd5b61006461005f366004610490565b6100c9565b005b61006e610223565b6040519081526020015b60405180910390f35b61008961026d565b6040516100789190610587565b6100b96100a4366004610613565b60026020526000908152604090205460ff1681565b6040519015158152602001610078565b60016000808282546100db9190610643565b9091555050604080518082019091526016815275257320776176656420772f206d65737361676520257360501b60208201526101189033836103c4565b6040805160608101825233815260208101838152429282019290925260018054808201825560009190915281517fb10e2d527612073b26eecdfd717e6a320cf44b4afac2b0732d9fcbe2b7fa0cf6600390920291820180546001600160a01b0319166001600160a01b0390921691909117815592519192917fb10e2d527612073b26eecdfd717e6a320cf44b4afac2b0732d9fcbe2b7fa0cf7909101906101bf90826106f2565b506040918201516002909101555133907f5f7e16dc676677766a70e9c5628aa6c54ddb8b6e5188e2ae1e1f17f1ffbea716906101fe90429085906107b2565b60405180910390a250336000908152600260205260409020805460ff19166001179055565b60006102666040518060400160405280601781526020017f5765206861766520256420746f74616c20776176657321000000000000000000815250600054610410565b5060005490565b60606001805480602002602001604051908101604052809291908181526020016000905b8282101561037557600084815260209081902060408051606081019091526003850290910180546001600160a01b0316825260018101805492939192918401916102da9061066a565b80601f01602080910402602001604051908101604052809291908181526020018280546103069061066a565b80156103535780601f1061032857610100808354040283529160200191610353565b820191906000526020600020905b81548152906001019060200180831161033657829003601f168201915b5050505050815260200160028201548152505081526020019060010190610291565b50505050905090565b6103c18160405160240161039291906107d3565b60408051601f198184030181529190526020810180516001600160e01b031663104c13eb60e21b179052610459565b50565b61040b8383836040516024016103dc939291906107e6565b60408051601f198184030181529190526020810180516001600160e01b031663e0e9ad4f60e01b179052610459565b505050565b6104558282604051602401610426929190610824565b60408051601f198184030181529190526020810180516001600160e01b03166309710a9d60e41b179052610459565b5050565b80516a636f6e736f6c652e6c6f67602083016000808483855afa5050505050565b634e487b7160e01b600052604160045260246000fd5b6000602082840312156104a257600080fd5b813567ffffffffffffffff808211156104ba57600080fd5b818401915084601f8301126104ce57600080fd5b8135818111156104e0576104e061047a565b604051601f8201601f19908116603f011681019083821181831017156105085761050861047a565b8160405282815287602084870101111561052157600080fd5b826020860160208301376000928101602001929092525095945050505050565b6000815180845260005b818110156105675760208185018101518683018201520161054b565b506000602082860101526020601f19601f83011685010191505092915050565b60006020808301818452808551808352604092508286019150828160051b87010184880160005b8381101561060557888303603f19018552815180516001600160a01b03168452878101516060898601819052906105e782870182610541565b928901519589019590955250948701949250908601906001016105ae565b509098975050505050505050565b60006020828403121561062557600080fd5b81356001600160a01b038116811461063c57600080fd5b9392505050565b8082018082111561066457634e487b7160e01b600052601160045260246000fd5b92915050565b600181811c9082168061067e57607f821691505b60208210810361069e57634e487b7160e01b600052602260045260246000fd5b50919050565b601f82111561040b57600081815260208120601f850160051c810160208610156106cb5750805b601f850160051c820191505b818110156106ea578281556001016106d7565b505050505050565b815167ffffffffffffffff81111561070c5761070c61047a565b6107208161071a845461066a565b846106a4565b602080601f831160018114610755576000841561073d5750858301515b600019600386901b1c1916600185901b1785556106ea565b600085815260208120601f198616915b8281101561078457888601518255948401946001909101908401610765565b50858210156107a25787850151600019600388901b60f8161c191681555b5050505050600190811b01905550565b8281526040602082015260006107cb6040830184610541565b949350505050565b60208152600061063c6020830184610541565b6060815260006107f96060830186610541565b6001600160a01b0385166020840152828103604084015261081a8185610541565b9695505050505050565b6040815260006108376040830185610541565b9050826020830152939250505056fea26469706673582212209a900127cd3e24a9566ba8238fea494478763d1868392b36ab27524b33b439fb64736f6c63430008110033",
    "linkReferences": {}
  },
  "methodIdentifiers": {
    "getAllWaves()": "bd43a908",
    "getTotalWaves()": "9a2cdc08",
    "usersWhoWaved(address)": "c9796e8d",
    "wave(string)": "449d46c0"
  },
  "id": 16
}