{
  "abi": [
    {
      "inputs": [],
      "stateMutability": "nonpayable",
      "type": "constructor"
    },
    {
      "anonymous": false,
      "inputs": [
        {
          "indexed": true,
          "internalType": "address",
          "name": "from",
          "type": "address"
        },
        {
          "indexed": false,
          "internalType": "uint256",
          "name": "timestamp",
          "type": "uint256"
        },
        {
          "indexed": false,
          "internalType": "string",
          "name": "message",
          "type": "string"
        }
      ],
      "name": "NewWave",
      "type": "event"
    },
    {
      "inputs": [
        {
          "internalType": "address",
          "name": "",
          "type": "address"
        }
      ],
      "name": "dailyWaves",
      "outputs": [
        {
          "internalType": "uint256",
          "name": "",
          "type": "uint256"
        }
      ],
      "stateMutability": "view",
      "type": "function"
    },
    {
      "inputs": [],
      "name": "getAllWaves",
      "outputs": [
        {
          "components": [
            {
              "internalType": "address",
              "name": "waver",
              "type": "address"
            },
            {
              "internalType": "string",
              "name": "message",
              "type": "string"
            },
            {
              "internalType": "uint256",
              "name": "timestamp",
              "type": "uint256"
            }
          ],
          "internalType": "struct WavePortal.Wave[]",
          "name": "",
          "type": "tuple[]"
        }
      ],
      "stateMutability": "view",
      "type": "function"
    },
    {
      "inputs": [],
      "name": "getTotalWaves",
      "outputs": [
        {
          "internalType": "uint256",
          "name": "",
          "type": "uint256"
        }
      ],
      "stateMutability": "view",
      "type": "function"
    },
    {
      "inputs": [
        {
          "internalType": "address",
          "name": "",
          "type": "address"
        }
      ],
      "name": "usersWhoWaved",
      "outputs": [
        {
          "internalType": "bool",
          "name": "",
          "type": "bool"
        }
      ],
      "stateMutability": "view",
      "type": "function"
    },
    {
      "inputs": [
        {
          "internalType": "string",
          "name": "_message",
          "type": "string"
        }
      ],
      "name": "wave",
      "outputs": [],
      "stateMutability": "nonpayable",
      "type": "function"
    }
  ],
  "bytecode": {
    "object": "0x608060405234801561001057600080fd5b506100596040518060400160405280601881526020017f4920414d20534d41525420434f4e54524143542e20474d2e000000000000000081525061005e60201b6104b61760201c565b610117565b6100a58160405160240161007291906100c9565b60408051601f198184030181529190526020810180516001600160e01b0390811663104c13eb60e21b179091526100a816565b50565b80516a636f6e736f6c652e6c6f67602083016000808483855afa5050505050565b600060208083528351808285015260005b818110156100f6578581018301518582016040015282016100da565b506000604082860101526040601f19601f8301168501019250505092915050565b6109b4806101266000396000f3fe608060405234801561001057600080fd5b50600436106100575760003560e01c8063449d46c01461005c5780639a2cdc0814610071578063bd43a9081461008c578063c9796e8d146100a1578063cfe13aca146100d4575b600080fd5b61006f61006a3660046105c8565b6100f4565b005b61007961035b565b6040519081526020015b60405180910390f35b6100946103a5565b60405161008391906106bf565b6100c46100af36600461074b565b60026020526000908152604090205460ff1681565b6040519015158152602001610083565b6100796100e236600461074b565b60036020526000908152604090205481565b3360009081526002602052604090205460ff16156101595760405162461bcd60e51b815260206004820152601f60248201527f5468697320616464726573732068617320616c72656164792077617665642e0060448201526064015b60405180910390fd5b336000908152600360205260409020546001116101de5760405162461bcd60e51b815260206004820152603d60248201527f5468697320616464726573732068617320616c7265616479207265616368656460448201527f20746865206c696d6974206f662031207761766520706572206461792e0000006064820152608401610150565b60016000808282546101f0919061077b565b9091555050604080518082019091526016815275257320776176656420772f206d65737361676520257360501b602082015261022d9033836104fc565b6040805160608101825233815260208101838152429282019290925260018054808201825560009190915281517fb10e2d527612073b26eecdfd717e6a320cf44b4afac2b0732d9fcbe2b7fa0cf6600390920291820180546001600160a01b0319166001600160a01b0390921691909117815592519192917fb10e2d527612073b26eecdfd717e6a320cf44b4afac2b0732d9fcbe2b7fa0cf7909101906102d4908261082a565b506040918201516002909101555133907f5f7e16dc676677766a70e9c5628aa6c54ddb8b6e5188e2ae1e1f17f1ffbea7169061031390429085906108ea565b60405180910390a2336000908152600260209081526040808320805460ff191660019081179091556003909252822080549192909161035390849061077b565b909155505050565b600061039e6040518060400160405280601781526020017f5765206861766520256420746f74616c20776176657321000000000000000000815250600054610548565b5060005490565b60606001805480602002602001604051908101604052809291908181526020016000905b828210156104ad57600084815260209081902060408051606081019091526003850290910180546001600160a01b031682526001810180549293919291840191610412906107a2565b80601f016020809104026020016040519081016040528092919081815260200182805461043e906107a2565b801561048b5780601f106104605761010080835404028352916020019161048b565b820191906000526020600020905b81548152906001019060200180831161046e57829003601f168201915b50505050508152602001600282015481525050815260200190600101906103c9565b50505050905090565b6104f9816040516024016104ca919061090b565b60408051601f198184030181529190526020810180516001600160e01b031663104c13eb60e21b179052610591565b50565b6105438383836040516024016105149392919061091e565b60408051601f198184030181529190526020810180516001600160e01b031663e0e9ad4f60e01b179052610591565b505050565b61058d828260405160240161055e92919061095c565b60408051601f198184030181529190526020810180516001600160e01b03166309710a9d60e41b179052610591565b5050565b80516a636f6e736f6c652e6c6f67602083016000808483855afa5050505050565b634e487b7160e01b600052604160045260246000fd5b6000602082840312156105da57600080fd5b813567ffffffffffffffff808211156105f257600080fd5b818401915084601f83011261060657600080fd5b813581811115610618576106186105b2565b604051601f8201601f19908116603f01168101908382118183101715610640576106406105b2565b8160405282815287602084870101111561065957600080fd5b826020860160208301376000928101602001929092525095945050505050565b6000815180845260005b8181101561069f57602081850181015186830182015201610683565b506000602082860101526020601f19601f83011685010191505092915050565b60006020808301818452808551808352604092508286019150828160051b87010184880160005b8381101561073d57888303603f19018552815180516001600160a01b031684528781015160608986018190529061071f82870182610679565b928901519589019590955250948701949250908601906001016106e6565b509098975050505050505050565b60006020828403121561075d57600080fd5b81356001600160a01b038116811461077457600080fd5b9392505050565b8082018082111561079c57634e487b7160e01b600052601160045260246000fd5b92915050565b600181811c908216806107b657607f821691505b6020821081036107d657634e487b7160e01b600052602260045260246000fd5b50919050565b601f82111561054357600081815260208120601f850160051c810160208610156108035750805b601f850160051c820191505b818110156108225782815560010161080f565b505050505050565b815167ffffffffffffffff811115610844576108446105b2565b6108588161085284546107a2565b846107dc565b602080601f83116001811461088d57600084156108755750858301515b600019600386901b1c1916600185901b178555610822565b600085815260208120601f198616915b828110156108bc5788860151825594840194600190910190840161089d565b50858210156108da5787850151600019600388901b60f8161c191681555b5050505050600190811b01905550565b8281526040602082015260006109036040830184610679565b949350505050565b6020815260006107746020830184610679565b6060815260006109316060830186610679565b6001600160a01b038516602084015282810360408401526109528185610679565b9695505050505050565b60408152600061096f6040830185610679565b9050826020830152939250505056fea2646970667358221220ddff83000b0e568ed1da7bb55bdc404b097e0c20da5a5c9b87a8512d7014acd164736f6c63430008110033",
    "linkReferences": {}
  },
  "methodIdentifiers": {
    "dailyWaves(address)": "cfe13aca",
    "getAllWaves()": "bd43a908",
    "getTotalWaves()": "9a2cdc08",
    "usersWhoWaved(address)": "c9796e8d",
    "wave(string)": "449d46c0"
  },
  "id": 16
}