{
  "abi": [
    {
      "inputs": [],
      "stateMutability": "nonpayable",
      "type": "constructor"
    },
    {
      "anonymous": false,
      "inputs": [
        {
          "indexed": true,
          "internalType": "address",
          "name": "from",
          "type": "address"
        },
        {
          "indexed": false,
          "internalType": "uint256",
          "name": "timestamp",
          "type": "uint256"
        },
        {
          "indexed": false,
          "internalType": "string",
          "name": "message",
          "type": "string"
        }
      ],
      "name": "NewGm",
      "type": "event"
    },
    {
      "inputs": [],
      "name": "getAllGms",
      "outputs": [
        {
          "components": [
            {
              "internalType": "address",
              "name": "gmer",
              "type": "address"
            },
            {
              "internalType": "string",
              "name": "message",
              "type": "string"
            },
            {
              "internalType": "uint256",
              "name": "timestamp",
              "type": "uint256"
            }
          ],
          "internalType": "struct GmPortal.Gm[]",
          "name": "",
          "type": "tuple[]"
        }
      ],
      "stateMutability": "view",
      "type": "function"
    },
    {
      "inputs": [],
      "name": "getTotalGms",
      "outputs": [
        {
          "internalType": "uint256",
          "name": "",
          "type": "uint256"
        }
      ],
      "stateMutability": "view",
      "type": "function"
    },
    {
      "inputs": [
        {
          "internalType": "string",
          "name": "_message",
          "type": "string"
        }
      ],
      "name": "gm",
      "outputs": [],
      "stateMutability": "nonpayable",
      "type": "function"
    },
    {
      "inputs": [
        {
          "internalType": "address",
          "name": "",
          "type": "address"
        }
      ],
      "name": "usersWhoGmd",
      "outputs": [
        {
          "internalType": "bool",
          "name": "",
          "type": "bool"
        }
      ],
      "stateMutability": "view",
      "type": "function"
    }
  ],
  "bytecode": {
    "object": "0x608060405234801561001057600080fd5b506100326040518060600160405280603b815260200161091d603b9139610037565b6100f0565b61007e8160405160240161004b91906100a2565b60408051601f198184030181529190526020810180516001600160e01b0390811663104c13eb60e21b1790915261008116565b50565b80516a636f6e736f6c652e6c6f67602083016000808483855afa5050505050565b600060208083528351808285015260005b818110156100cf578581018301518582016040015282016100b3565b506000604082860101526040601f19601f8301168501019250505092915050565b61081e806100ff6000396000f3fe608060405234801561001057600080fd5b506004361061004c5760003560e01c80633a05e29e146100515780638a215be31461006f578063d8686ecb14610085578063e2d499c11461009a575b600080fd5b6100596100cd565b6040516100669190610475565b60405180910390f35b6100776101de565b604051908152602001610066565b610098610093366004610517565b610220565b005b6100bd6100a83660046105c8565b60026020526000908152604090205460ff1681565b6040519015158152602001610066565b60606001805480602002602001604051908101604052809291908181526020016000905b828210156101d557600084815260209081902060408051606081019091526003850290910180546001600160a01b03168252600181018054929391929184019161013a906105f8565b80601f0160208091040260200160405190810160405280929190818152602001828054610166906105f8565b80156101b35780601f10610188576101008083540402835291602001916101b3565b820191906000526020600020905b81548152906001019060200180831161019657829003601f168201915b50505050508152602001600282015481525050815260200190600101906100f1565b50505050905090565b6000610219604051806040016040528060158152602001745765206861766520256420746f74616c20676d732160581b815250600054610379565b5060005490565b60016000808282546102329190610632565b9091555050604080518082019091526015815274257320676d276420772f206d65737361676520257360581b602082015261026e9033836103c2565b6040805160608101825233815260208101838152429282019290925260018054808201825560009190915281517fb10e2d527612073b26eecdfd717e6a320cf44b4afac2b0732d9fcbe2b7fa0cf6600390920291820180546001600160a01b0319166001600160a01b0390921691909117815592519192917fb10e2d527612073b26eecdfd717e6a320cf44b4afac2b0732d9fcbe2b7fa0cf79091019061031590826106a7565b506040918201516002909101555133907fee86ba231d4398fdc6bddfeaf10d67c92be43790841bf9ae08cc7c476f01294e906103549042908590610767565b60405180910390a250336000908152600260205260409020805460ff19166001179055565b6103be828260405160240161038f929190610788565b60408051601f198184030181529190526020810180516001600160e01b03166309710a9d60e41b17905261040e565b5050565b6104098383836040516024016103da939291906107aa565b60408051601f198184030181529190526020810180516001600160e01b031663e0e9ad4f60e01b17905261040e565b505050565b80516a636f6e736f6c652e6c6f67602083016000808483855afa5050505050565b6000815180845260005b8181101561045557602081850181015186830182015201610439565b506000602082860101526020601f19601f83011685010191505092915050565b60006020808301818452808551808352604092508286019150828160051b87010184880160005b838110156104f357888303603f19018552815180516001600160a01b03168452878101516060898601819052906104d58287018261042f565b9289015195890195909552509487019492509086019060010161049c565b509098975050505050505050565b634e487b7160e01b600052604160045260246000fd5b60006020828403121561052957600080fd5b813567ffffffffffffffff8082111561054157600080fd5b818401915084601f83011261055557600080fd5b81358181111561056757610567610501565b604051601f8201601f19908116603f0116810190838211818310171561058f5761058f610501565b816040528281528760208487010111156105a857600080fd5b826020860160208301376000928101602001929092525095945050505050565b6000602082840312156105da57600080fd5b81356001600160a01b03811681146105f157600080fd5b9392505050565b600181811c9082168061060c57607f821691505b60208210810361062c57634e487b7160e01b600052602260045260246000fd5b50919050565b8082018082111561065357634e487b7160e01b600052601160045260246000fd5b92915050565b601f82111561040957600081815260208120601f850160051c810160208610156106805750805b601f850160051c820191505b8181101561069f5782815560010161068c565b505050505050565b815167ffffffffffffffff8111156106c1576106c1610501565b6106d5816106cf84546105f8565b84610659565b602080601f83116001811461070a57600084156106f25750858301515b600019600386901b1c1916600185901b17855561069f565b600085815260208120601f198616915b828110156107395788860151825594840194600190910190840161071a565b50858210156107575787850151600019600388901b60f8161c191681555b5050505050600190811b01905550565b828152604060208201526000610780604083018461042f565b949350505050565b60408152600061079b604083018561042f565b90508260208301529392505050565b6060815260006107bd606083018661042f565b6001600160a01b038516602084015282810360408401526107de818561042f565b969550505050505056fea26469706673582212204376f407902acc74582635a2358bf08a6928964dc3f28a651c0a23b529ab691664736f6c634300081400336920616d206120736d61727420636f6e7472616374206f6e20506f6c617269732045564d207820526f6c6c6b69742e206f6f676120626f6f676121",
    "linkReferences": {}
  },
  "methodIdentifiers": {
    "getAllGms()": "3a05e29e",
    "getTotalGms()": "8a215be3",
    "gm(string)": "d8686ecb",
    "usersWhoGmd(address)": "e2d499c1"
  },
  "id": 16
}