{
  "abi": [
    {
      "inputs": [],
      "stateMutability": "nonpayable",
      "type": "constructor"
    },
    {
      "anonymous": false,
      "inputs": [
        {
          "indexed": true,
          "internalType": "address",
          "name": "from",
          "type": "address"
        },
        {
          "indexed": false,
          "internalType": "uint256",
          "name": "timestamp",
          "type": "uint256"
        },
        {
          "indexed": false,
          "internalType": "string",
          "name": "message",
          "type": "string"
        }
      ],
      "name": "NewGm",
      "type": "event"
    },
    {
      "inputs": [],
      "name": "getAllGms",
      "outputs": [
        {
          "components": [
            {
              "internalType": "address",
              "name": "gmer",
              "type": "address"
            },
            {
              "internalType": "string",
              "name": "message",
              "type": "string"
            },
            {
              "internalType": "uint256",
              "name": "timestamp",
              "type": "uint256"
            }
          ],
          "internalType": "struct GmPortal.Gm[]",
          "name": "",
          "type": "tuple[]"
        }
      ],
      "stateMutability": "view",
      "type": "function"
    },
    {
      "inputs": [],
      "name": "getTotalGms",
      "outputs": [
        {
          "internalType": "uint256",
          "name": "",
          "type": "uint256"
        }
      ],
      "stateMutability": "view",
      "type": "function"
    },
    {
      "inputs": [
        {
          "internalType": "string",
          "name": "_message",
          "type": "string"
        }
      ],
      "name": "gm",
      "outputs": [],
      "stateMutability": "nonpayable",
      "type": "function"
    },
    {
      "inputs": [
        {
          "internalType": "address",
          "name": "",
          "type": "address"
        }
      ],
      "name": "usersWhoGmd",
      "outputs": [
        {
          "internalType": "bool",
          "name": "",
          "type": "bool"
        }
      ],
      "stateMutability": "view",
      "type": "function"
    }
  ],
  "bytecode": {
    "object": "0x608060405234801561001057600080fd5b5061003c6040518060600160405280602a8152602001610980602a913961004160201b6103791760201c565b6100fa565b6100888160405160240161005591906100ac565b60408051601f198184030181529190526020810180516001600160e01b0390811663104c13eb60e21b1790915261008b16565b50565b80516a636f6e736f6c652e6c6f67602083016000808483855afa5050505050565b600060208083528351808285015260005b818110156100d9578581018301518582016040015282016100bd565b506000604082860101526040601f19601f8301168501019250505092915050565b610877806101096000396000f3fe608060405234801561001057600080fd5b506004361061004c5760003560e01c80633a05e29e146100515780638a215be31461006f578063d8686ecb14610085578063e2d499c11461009a575b600080fd5b6100596100cd565b60405161006691906104bb565b60405180910390f35b6100776101de565b604051908152602001610066565b61009861009336600461055d565b610220565b005b6100bd6100a836600461060e565b60026020526000908152604090205460ff1681565b6040519015158152602001610066565b60606001805480602002602001604051908101604052809291908181526020016000905b828210156101d557600084815260209081902060408051606081019091526003850290910180546001600160a01b03168252600181018054929391929184019161013a9061063e565b80601f01602080910402602001604051908101604052809291908181526020018280546101669061063e565b80156101b35780601f10610188576101008083540402835291602001916101b3565b820191906000526020600020905b81548152906001019060200180831161019657829003601f168201915b50505050508152602001600282015481525050815260200190600101906100f1565b50505050905090565b6000610219604051806040016040528060158152602001745765206861766520256420746f74616c20676d732160581b8152506000546103bf565b5060005490565b60016000808282546102329190610678565b9091555050604080518082019091526015815274257320676d276420772f206d65737361676520257360581b602082015261026e903383610408565b6040805160608101825233815260208101838152429282019290925260018054808201825560009190915281517fb10e2d527612073b26eecdfd717e6a320cf44b4afac2b0732d9fcbe2b7fa0cf6600390920291820180546001600160a01b0319166001600160a01b0390921691909117815592519192917fb10e2d527612073b26eecdfd717e6a320cf44b4afac2b0732d9fcbe2b7fa0cf79091019061031590826106ed565b506040918201516002909101555133907fee86ba231d4398fdc6bddfeaf10d67c92be43790841bf9ae08cc7c476f01294e9061035490429085906107ad565b60405180910390a250336000908152600260205260409020805460ff19166001179055565b6103bc8160405160240161038d91906107ce565b60408051601f198184030181529190526020810180516001600160e01b031663104c13eb60e21b179052610454565b50565b61040482826040516024016103d59291906107e1565b60408051601f198184030181529190526020810180516001600160e01b03166309710a9d60e41b179052610454565b5050565b61044f83838360405160240161042093929190610803565b60408051601f198184030181529190526020810180516001600160e01b031663e0e9ad4f60e01b179052610454565b505050565b80516a636f6e736f6c652e6c6f67602083016000808483855afa5050505050565b6000815180845260005b8181101561049b5760208185018101518683018201520161047f565b506000602082860101526020601f19601f83011685010191505092915050565b60006020808301818452808551808352604092508286019150828160051b87010184880160005b8381101561053957888303603f19018552815180516001600160a01b031684528781015160608986018190529061051b82870182610475565b928901519589019590955250948701949250908601906001016104e2565b509098975050505050505050565b634e487b7160e01b600052604160045260246000fd5b60006020828403121561056f57600080fd5b813567ffffffffffffffff8082111561058757600080fd5b818401915084601f83011261059b57600080fd5b8135818111156105ad576105ad610547565b604051601f8201601f19908116603f011681019083821181831017156105d5576105d5610547565b816040528281528760208487010111156105ee57600080fd5b826020860160208301376000928101602001929092525095945050505050565b60006020828403121561062057600080fd5b81356001600160a01b038116811461063757600080fd5b9392505050565b600181811c9082168061065257607f821691505b60208210810361067257634e487b7160e01b600052602260045260246000fd5b50919050565b8082018082111561069957634e487b7160e01b600052601160045260246000fd5b92915050565b601f82111561044f57600081815260208120601f850160051c810160208610156106c65750805b601f850160051c820191505b818110156106e5578281556001016106d2565b505050505050565b815167ffffffffffffffff81111561070757610707610547565b61071b81610715845461063e565b8461069f565b602080601f83116001811461075057600084156107385750858301515b600019600386901b1c1916600185901b1785556106e5565b600085815260208120601f198616915b8281101561077f57888601518255948401946001909101908401610760565b508582101561079d5787850151600019600388901b60f8161c191681555b5050505050600190811b01905550565b8281526040602082015260006107c66040830184610475565b949350505050565b6020815260006106376020830184610475565b6040815260006107f46040830185610475565b90508260208301529392505050565b6060815260006108166060830186610475565b6001600160a01b038516602084015282810360408401526108378185610475565b969550505050505056fea2646970667358221220fa1138e2319113ad8f262f937bf34dc5e7d64fdb59bd7c985dbdce5aba26599b64736f6c634300081100336920616d206120736d61727420636f6e7472616374206f6e205461726f20746573746e65742e20676d21",
    "linkReferences": {}
  },
  "methodIdentifiers": {
    "getAllGms()": "3a05e29e",
    "getTotalGms()": "8a215be3",
    "gm(string)": "d8686ecb",
    "usersWhoGmd(address)": "e2d499c1"
  },
  "id": 16
}